{
  "_format": "hh-sol-artifact-1",
  "contractName": "MyContract",
  "sourceName": "contracts/Contract.sol",
  "abi": [
    {
      "inputs": [],
      "name": "decCounter",
      "outputs": [],
      "stateMutability": "nonpayable",
      "type": "function"
    },
    {
      "inputs": [],
      "name": "getCount",
      "outputs": [
        {
          "internalType": "uint256",
          "name": "",
          "type": "uint256"
        }
      ],
      "stateMutability": "view",
      "type": "function"
    },
    {
      "inputs": [],
      "name": "incCounter",
      "outputs": [],
      "stateMutability": "nonpayable",
      "type": "function"
    }
  ],
  "bytecode": "0x608060405234801561001057600080fd5b50610165806100206000396000f3fe608060405234801561001057600080fd5b50600436106100415760003560e01c8063206fd5af1461004657806322aacad514610050578063a87d942c14610058575b600080fd5b61004e61006d565b005b61004e6100db565b60005460405190815260200160405180910390f35b60008054116100c25760405162461bcd60e51b815260206004820152601760248201527f636f756e7465722063616e206e6f74206265202d766520000000000000000000604482015260640160405180910390fd5b60016000808282546100d49190610103565b9091555050565b60016000808282546100d4919061011c565b634e487b7160e01b600052601160045260246000fd5b81810381811115610116576101166100ed565b92915050565b80820180821115610116576101166100ed56fea26469706673582212206feeae61802fb871829e730c9b43304d016c4191f728d714117e68c563403fd164736f6c63430008110033",
  "linkReferences": {},
  "deployedLinkReferences": {}
}